:0400000007EF00F016
:0A000800558273ED06F096EF07F045
:10060000003F065B4F666D7D077F6F777C395E79B3
:10061000713D74041E363853545C7353506D783EEC
:090620001C53536E5300405300BB
:10062A0058EC08F0949A949C949E93968A96F28E2B
:10063A00B3EC07F0000E226E000E216E2950D8B4DA
:10064A0029EF03F02BEF03F073EF03F0000E296E8E
:10065A005250D8A433EF03F035EF03F072EF03F0F2
:10066A003C0E526E0FC00DF010C00EF0000E106E50
:10067A00000E0F6E33500D5C000E0E58D8B048EFC6
:10068A0003F04AEF03F05EEF03F04F505010D8A486
:10069A0051EF03F053EF03F059EF03F0000E506EE1
:1006AA00020E4F6E010E1E6E4F06D8A0500672EF54
:1006BA0003F033504B6E4C6A0D504B5C0E504C5845
:1006CA00D8B06AEF03F06CEF03F072EF03F0000E9C
:1006DA00506E020E4F6E000E1E6E52062850D8B48F
:1006EA0079EF03F07BEF03F08BEF03F0000E286E37
:1006FA00000E1F6E2050D8B485EF03F087EF03F089
:10070A008BEF03F0000E206E010E1F6E1F50D8B43F
:10071A0091EF03F093EF03F094EF03F021801E5062
:10072A00D8B49AEF03F09CEF03F0A0EF03F08A86A7
:10073A0021822FEF04F08A962FEF04F00DC046F0C5
:10074A000EC047F0000E486E7BEC05F027A0B0EF14
:10075A0003F0B2EF03F0BCEF03F0000E506E020E8E
:10076A004F6E000E1E6E000E276E000E266E27A616
:10077A00C1EF03F0C3EF03F048EF04F0000E276E59
:10078A00000E266E242A48EF04F02280020E3F6EE5
:10079A00190ED0EC07F0010E3F6E1B0ED0EC07F0DD
:1007AA00000E3F6E180ED0EC07F027A6DFEF03F01D
:1007BA00E1EF03F0E7EF03F0000E276E000E266E5E
:1007CA00000E246E27A4ECEF03F0EEEF03F048EFDF
:1007DA0004F0000E276E000E266E242A000E236EE9
:1007EA00000E256E48EF04F02280330E3F6E000E95
:1007FA00406E3C0E416E000E426EDEEC05F033C0D8
:10080A0046F0476A000E486E7BEC05F027B610EFFB
:10081A0004F012EF04F019EF04F027A417EF04F024
:10082A0019EF04F048EF04F0000E276E000E266E52
:10083A00000E246E330E426E000E436E000E446E9E
:10084A00010E456E0AEC07F048EF04F0000E246E24
:10085A0048EF04F024504B6E4C6A4C50000AD8B44E
:10086A0039EF04F02BEF04F04B50000AD8B4A3EF91
:10087A0003F0010AD8B4CAEF03F0030AD8B4F9EFB7
:10088A0003F02BEF04F022A04DEF04F04FEF04F039
:10089A0052EF04F08B9E53EF04F08B8E21A058EF99
:1008AA0004F05AEF04F05DEF04F08B9C5EEF04F065
:1008BA008B8C21A263EF04F065EF04F068EF04F07B
:1008CA008B9A69EF04F08B8A030E3F6E225024EC58
:1008DA0008F043EC08F004001FEF03F007EF00F004
:1008EA00EC0E095C010E0A58D8B07EEF04F080EFD6
:1008FA0004F084EF04F0094A0A2A8CEF04F0000E8F
:10090A000A6E000E096E010E296E010E196E09C0DB
:10091A0034F00AC035F0000E376EFA0E366ED8EC97
:10092A0006F034503510D8A49DEF04F09FEF04F080
:10093A00ACEF04F01650D8B4A5EF04F0A8EF04F019
:10094A00010EA9EF04F0000E166E010E1A6E09C010
:10095A0034F00AC035F0000E376E7D0E366ED8ECD4
:10096A0006F034503510D8A4BDEF04F0BFEF04F000
:10097A00CCEF04F01750D8B4C5EF04F0C8EF04F078
:10098A00010EC9EF04F0000E176E010E286E8A8E52
:10099A008A8C8A8A8A8815504D24D96E000E4E2078
:1009AA00DA6EDF50FF0A8C6E1550D8A4DFEF04F020
:1009BA00E1EF04F0E4EF04F08A9E05EF05F0150478
:1009CA00D8A4EAEF04F0ECEF04F0EFEF04F08A9C0D
:1009DA0005EF05F0020E1518D8A4F6EF04F0F8EFAB
:1009EA0004F0FBEF04F08A9A05EF05F0030E1518E0
:1009FA00D8A402EF05F004EF05F005EF05F08A9898
:100A0A0081B20AEF05F00CEF05F01CEF05F015C0F6
:100A1A003BF0010E3C6E3B2A15EF05F0D8903C36B0
:100A2A003B2E13EF05F03C5014122BEF05F015C0C6
:100A3A003BF0010E3C6E3B2A25EF05F0D8903C3680
:100A4A003B2E23EF05F03C50FF0A1416040E346EB9
:100A5A00155077EC07F0156E1550D8A437EF05F04E
:100A6A0039EF05F07AEF05F01350FF0A1414271234
:100A7A0014C013F01450D8B445EF05F047EF05F051
:100A8A0050EF05F0122E52EF05F0320E126E14508E
:100A9A00261252EF05F0320E126E1B50D8B458EFE0
:100AAA0005F05AEF05F07AEF05F01C50D8B460EF64
:100ABA0005F062EF05F06EEF05F0000E1C6E2F0ECA
:100ACA00536E000E546E2B0E4D6E000E4E6E78EF66
:100ADA0005F0010E1C6E2B0E536E000E546E2F0E77
:100AEA004D6E000E4E6E000E1B6E1200000E4A6E08
:100AFA00FFEC07F0030E4A6485EF05F087EF05F077
:100B0A0089EF05F0D0EF05F046C03FF047C040F04E
:100B1A00000E426E0A0E416EA6EC06F03F50496E78
:100B2A004AC03FF04950D0EC07F04950465C3F6E4E
:100B3A004750D8A04704406E000E426E0A0E416E1E
:100B4A0039EC06F03FC046F040C047F0040E48605A
:100B5A00B1EF05F0B3EF05F0C7EF05F048504A5C76
:100B6A00D8A0BAEF05F0BCEF05F0C7EF05F0465084
:100B7A004710D8A4C3EF05F0C5EF05F0C7EF05F09D
:100B8A00D0EF05F04A2A050E4A64CEEF05F0D0EF01
:100B9A0005F07FEF05F0040E4860D6EF05F0D8EFB8
:100BAA0005F0DDEF05F048C03FF0800E12EC08F0CA
:100BBA00120027B2E3EF05F0E5EF05F0ECEF05F0E0
:100BCA0026A2EAEF05F0ECEF05F00CEF06F0000EB6
:100BDA00276E000E266E3FC0D9FF40C0DAFF415093
:100BEA00DE5CD8B0FBEF05F0FDEF05F004EF06F090
:100BFA003FC0D9FF40C0DAFFDF2A38EF06F03FC016
:100C0A00D9FF40C0DAFF41C0DFFF38EF06F027B056
:100C1A0011EF06F013EF06F01AEF06F026A018EF10
:100C2A0006F01AEF06F038EF06F0000E276E000EF7
:100C3A00266E3FC0D9FF40C0DAFFDE50425CD8B012
:100C4A0029EF06F02BEF06F032EF06F03FC0D9FF8E
:100C5A0040C0DAFFDF0638EF06F03FC0D9FF40C0D8
:100C6A00DAFF42C0DFFF1200000E446E000E436E30
:100C7A0041504210D8B444EF06F046EF06F06EEF4A
:100C8A0006F0010E456E4EEF06F0D8904136423618
:100C9A00452A42AE53EF06F055EF06F04AEF06F04A
:100CAA00D8904336443641503F5C42504058D8A011
:100CBA0061EF06F063EF06F068EF06F041503F5E21
:100CCA004250405A4380D89042324132452E55EF25
:100CDA0006F043C03FF044C040F012000600D9CFEE
:100CEA003DF0DACF3EF0F2AA7DEF06F07FEF06F094
:100CFA008DEF06F0F2A484EF06F086EF06F08DEF92
:100D0A0006F02AC0D6FF75EC04F0F294A0EF06F0C4
:100D1A00F2A892EF06F094EF06F0A0EF06F0F2A226
:100D2A0099EF06F09BEF06F0A0EF06F00F4A102AA3
:100D3A00010E206EF2923EC0DAFF3DC0D9FF5592F5
:100D4A00110041504210D8B4ADEF06F0AFEF06F0F3
:100D5A00D3EF06F0010E436EB7EF06F0D890413696
:100D6A004236432A42AEBCEF06F0BEEF06F0B3EFBE
:100D7A0006F041503F5C42504058D8A0C7EF06F0F9
:100D8A00C9EF06F0CDEF06F041503F5E4250405A9F
:100D9A00D89042324132432EBEEF06F03FC03FF0B8
:100DAA0040C040F0120036503710D8B4DFEF06F0DA
:100DBA00E1EF06F005EF07F0010E386EE9EF06F0F5
:100DCA00D89036363736382A37AEEEEF06F0F0EFDF
:100DDA0006F0E5EF06F03650345C37503558D8A0A7
:100DEA00F9EF06F0FBEF06F0FFEF06F03650345E3F
:100DFA003750355AD89037323632382EF0EF06F05F
:100E0A0034C034F035C035F01200000E4A6E000EC0
:100E1A00496E1EEF07F042C0D9FF43C0DAFFDF5028
:100E2A003F6E445057EC07F0424A432A442A494A43
:100E3A004A2A4550466E476A4650495C4A50800ADB
:100E4A00486E4750800A4858D8A02EEF07F030EF76
:100E5A0007F010EF07F01200000E486E000E476E02
:100E6A0044EF07F042504EEC08F040C0D9FF41C0B1
:100E7A00DAFFDF6E422A404A412A474A482A43504B
:100E8A00446E456A4450475C4850800A466E455055
:100E9A00800A4658D8A054EF07F056EF07F037EF0C
:100EAA0007F01200406E000EF2BE010E416E40C005
:100EBA00A9FF3FC0A8FFA69EA69CA684F29E550E37
:100ECA00A76EAA0EA76EA682A6B26EEF07F070EF03
:100EDA0007F069EF07F0A69441B002D0F29E01D064
:100EEA00F28E12003A6EFF0E3424356E366AFF0E09
:100EFA0036223A50376E386A3550375C3850800A95
:100F0A00396E3650800A3958D8B08EEF07F090EF14
:100F1A0007F094EF07F03A2A3A5095EF07F0000EDF
:100F2A001200CC0EF66E100EF76E000EF86E00EE82
:100F3A004DF010EE06F00900F5CFEEFFE550E15056
:100F4A00FAE100EE01F0330EEE6AE806FDE1559093
:100F5A005592000EF86E000115EF03F0330E406E45
:100F6A00000E416E000E426E010E436E31EC07F028
:100F7A003350D8B4C3EF07F0C5EF07F0CDEF07F051
:100F8A00640E3364CBEF07F0CDEF07F0CFEF07F035
:100F9A000A0E336E1200406E040E3F60D7EF07F060
:100FAA00D9EF07F0E8EF07F0010E4024F66EF76A72
:100FBA00060EF7223F505324D96E000E5420DA6EE3
:100FCA000800F5CFDFFF1200000E956E9398939AF2
:100FDA00939C939E93828A82F19E010E1C6E2F0E21
:100FEA004D6E000E4E6E2B0E536E000E546E000E9A
:100FFA001B6E1200000E3F6E3F505324D96E000E36
:10100A005420DA6EDF6A3F2A030E3F640FEF08F0BE
:10101A0011EF08F001EF08F01200406E040E3F6075
:10102A0019EF08F01BEF08F023EF08F03F505324A4
:10103A00D96E000E5420DA6E4050DF121200406E54
:10104A00040E3F602BEF08F02DEF08F035EF08F0A3
:10105A003F505324D96E000E5420DA6E40C0DFFF91
:10106A001200D90E2A6E2AC0D6FF000ED76E470E7E
:10107A00D56EF284F28AF194D58E1200010E1B6E9F
:10108A001B50D8A44BEF08F04DEF08F045EF08F0DD
:10109A0012003F6E3FC0A9FFA69CA69EA68000F044
:1010AA0000F0A850120069EC08F0E9EC07F036EC01
:1010BA0008F061EC08F012009380F19CF292F28839
:0C10CA0012002F0002000F3CD09E12000C
:020000040020DA
:08000000FFFFFFFFFFFFFFFF00
:020000040030CA
:0E000000FF021215FF8081FF0FC00FE00F40BE
:00000001FF
